:020000040800F2
:1000000030100020E56E0008A96F0008F16E0008AE
:10001000FD6E0008096F0008156F00080000000061
:10002000000000000000000000000000B3160008FF
:10003000AD6F0008000000006D1600086710000892
:10004000B16F0008B56F0008B96F0008000000002C
:1000500000000000BD6F000827370008AF3E000811
:100060001F60000800000000C16F0008C56F000895
:10007000C96F000800000000CD6F0008D16F0008B4
:10008000D56F0008D96F000800000000DD6F000880
:10009000E16F000800000000000000000000000008
:1000A000000000000000000000000000E56F0008F4
:1000B000E96F0008ED6F0008F16F0008F56F0008A8
:1000C0002DE9F04385B004000D0016001F00B6B204
:1000D000B00000F059FE8146B9F1000F0DD0542058
:1000E00000F052FE8046B8F1000F02D0C8F8309000
:1000F00005E0484600F0AEFE01E05FF00008B8F110
:10010000000F13D000200390CDF808800D980190C7
:100110000C9800903B00B6B232002900200000F09D
:100120000AF8404600F05BF8012001E05FF0FF3084
:1001300005B0BDE8F0832DE9F04104001D00089EE4
:10014000306B00EB8200071FFF08FF00002910D072
:10015000002000E0401C102807D20A5C06EB0003D8
:1001600083F834200A5C002AF4D1002086F843008A
:1001700002E0002086F83400DDF81880B8F1050FA1
:1001800001D35FF00408C6F82C80C6F84480002034
:10019000B064301D00F0ADFE16F1180000F0A9FEAD
:1001A0003661D8F10500B06176620421002216F1B3
:1001B0004C08404600F0DAFE0121002216F15008FA
:1001C000404600F0D3FE2A002100380000F002FF74
:1001D00030600798002800D00660BDE8F08110B5B7
:1001E000040000F026FFDFF8DC070068401CDFF8A1
:1001F000D4170860DFF8D007006800280AD1DFF8BC
:10020000C8070460DFF8BC070068012811D100F0BE
:10021000DDFB0EE0DFF808080068002809D1E06A7D
:10022000DFF8A4170968C96A884202D3DFF8980783
:100230000460DFF8F0070068401CDFF8E81708608A
:10024000DFF8E40700680121E26A91400843DFF823
:10025000D8170860211DDFF85008E26A14235A43BA
:10026000104400F049FE00F0F1FEDFF8B40700682A
:1002700000280FD0DFF850070068C06AE16A8842A2
:1002800008D25FF08050DFF8F4190860BFF34F8F99
:10029000BFF36F8F10BD10B5040000F0CAFE002C34
:1002A00003D1DFF824070468FFE7201D00F04BFEB0
:1002B000002811D1DFF8F007E16A142251434058B9
:1002C000002809D1DFF8600700680121E26A914047
:1002D0008843DFF854170860A06A002803D014F19F
:1002E000180000F030FEDFF83C070068401CDFF823
:1002F00034170860DFF8D006006884420CD1211D55
:10030000DFF8C80700F0F8FDDFF8C4070068401CFC
:10031000DFF8BC1708600BE0DFF8A8060068401E95
:10032000DFF8A0160860200000F0A0FB00F0A7FB9B
:1003300000F08CFEDFF8E806006800280DD0DFF83A
:1003400088060068844208D15FF08050DFF85019B9
:100350000860BFF34F8FBFF36F8F10BD10B504005F
:100360000020002C07D000F009F90021200000F047
:10037000ABFC00F02EF9002808D15FF08050DFF8C8
:1003800020190860BFF34F8FBFF36F8F10BD10B5FA
:10039000040000F04EFE002C03D1DFF82C060468A8
:1003A000FFE7201D00F0CFFD002811D1DFF8F8068F
:1003B000E16A142251434058002809D1DFF8680649
:1003C00000680121E26A91408843DFF85C1608600A
:1003D000A06A002803D014F1180000F0B4FD211D1C
:1003E000DFF8C00800F088FD00200BE004EB0001FE
:1003F00091F85010012904D1002104EB000282F889
:100400005010401C0128F1DB00F020FEDFF8100640
:100410000068002805D000F00CFE00F030FB00F072
:1004200015FEDFF8A405006884421DD1DFF8F00551
:100430000068002809D05FF08050DFF8401808609D
:10044000BFF34F8FBFF36F8F0EE0DFF858080068DF
:10045000DFF870150968884204D10020DFF86815BC
:10046000086001E000F0B2F910BD00214269DFF838
:1004700034389A4208D1826ADFF840389A4203D071
:10048000806A002800D101210800704710B50400DF
:10049000DFF834050068844230D0002C2ED000F004
:1004A000C8FD2000FFF7E1FF002825D0201D00F047
:1004B0004AFDDFF8740500680121E26A91400843B3
:1004C000DFF864150860211DDFF8DC05E26A1423FB
:1004D0005A43104400F010FDE06ADFF8EC1409689C
:1004E000C96A884208D35FF08050DFF8B41708600B
:1004F000BFF34F8FBFF36F8F00F0A8FD10BD00B5A5
:1005000083B0DFF8AC0701900020009000234FF487
:100510000072DFF8A0170FF22940FFF7D1FD012884
:1005200001D100F05BFE012815D1BF2080F31188B6
:10053000BFF34F8FBFF36F8F5FF0FF30DFF8781797
:1005400008600120DFF8D81408600020DFF8841567
:10055000086000F057FDDFF86807006807BD80B548
:10056000BF2080F31188BFF34F8FBFF36F8F002040
:10057000DFF8AC14086000F05BFD01BDDFF8280770
:100580000068401CDFF82017086070470020012138
:10059000DFF894241268914200D20120DFF8281479
:1005A0000968C96A002901D0002011E0DFF8F814B9
:1005B0000968022901D300200AE0002801D00020A8
:1005C00006E0DFF8F4060068DFF87C170968401AD7
:1005D000704738B50025002400F02BFDDFF8C80671
:1005E0000068401EDFF8C0160860DFF8BC0600682F
:1005F00000285AD1DFF8CC030068002829D154E044
:10060000DFF8B806C068C56815F1180000F09BFC5B
:10061000281D00F098FCDFF8100400680121EA6A48
:1006200091400843DFF800140860291DDFF87804C2
:10063000EA6A14235A43104400F05EFCE86ADFF8CB
:1006400088130968C96A884203D30120DFF85C1661
:100650000860DFF8680600680028D1D1002D01D0BD
:1006600000F00DFADFF8E4060568002D0ED000F06A
:100670002CF8002803D00120DFF8301608606D1E2A
:10068000002DF4D10020DFF8C4160860DFF81C0646
:100690000068002809D001245FF08050DFF80016C0
:1006A0000860BFF34F8FBFF36F8F00F0CFFC2000C7
:1006B00032BDDFF8940600687047DFF88C160968D1
:1006C0004018DFF884160860704770B50024DFF822
:1006D000D8050068002870D1DFF8F8030068451CD1
:1006E000DFF8F0030560002D14D1DFF86C06006818
:1006F000DFF8D0150968DFF860261160DFF8C4154F
:100700000860DFF858060068401CDFF850160860E3
:1007100000F0B5F9DFF8A005006885423BD323E07F
:10072000301D00F010FCB06A002803D016F118004C
:1007300000F009FCDFF8F00200680121F26A914044
:100740000843DFF8E4120860311DDFF85C03F26A49
:1007500014235A43104400F0CFFBF06A9A49096809
:10076000C96A884200D30124DFF8EC0500680068FC
:10077000002805D15FF0FF30DFF83C1508600AE083
:10078000DFF8D4050068C068C66870688542C7D2C3
:10079000DFF8241508608C480068DFF80C13C06A85
:1007A000142250430858022800D30124DFF8FC0427
:1007B0000068002808D0012406E0DFF890050068F2
:1007C000401CDFF888150860200070BDDFF8D804F1
:1007D0000068002804D00120DFF8D01408601CE075
:1007E0000020DFF8C81408608F480068B0FA80F075
:1007F000D0F11F00AC4914225043084441684968B5
:100800004160416810F10802914202D14168496893
:1008100041604068C0686C490860704710B50C00C2
:10082000DFF830150968183100F072FB0121200053
:1008300000F04AFA10BD38B50C001500DFF81415A9
:100840000968183100F058FB002D01D05FF0FF342B
:100850002900200000F038FA31BD10B5C068C46826
:1008600014F1180000F06FFBDFF83C04006800286A
:1008700015D1201D00F067FB6B4800680121E26A7A
:100880009140084368490860211D8748E26A1423A3
:100890005A43104400F030FB00F0F1F805E014F189
:1008A0001801DFF8180400F027FB47480068C06A09
:1008B000E16A884205D201200121DFF8F0231160AE
:1008C00000E0002010BDDFF8941409680160DFF833
:1008D000781409684160704738B505000C0000F0D5
:1008E000A8FB7C4800686968411A226812F1010F70
:1008F00001D100251AE0DFF8642412682B689A42BF
:1009000006D06A68904203D30125002020600DE0E4
:100910002068814207D22068401A20602800FFF733
:10092000D2FF002502E000202060012500F08EFBB0
:10093000280032BD0120DFF8741308607047000002
:1009400080B500F073F858480068022808D35FF0BB
:100950008050DFF80C140860BFF34F8FBFF36F8F28
:10096000FFF714FE0228ECD3FFF708FEFFF70EFE98
:10097000022801D300F092FBFFF72BFEE1E70121F3
:100980000120DFF838231268002A01D0002017E088
:10099000DFF818231268002A01D0002010E0DFF8E9
:1009A000AC231268002A01D0002009E0DFF8F4220D
:1009B0001268DFF89C331B68591A8A4200D1022062
:1009C000C0B27047886600207866002010B5002409
:1009D00007E03548142101FB04F1084400F07AFADD
:1009E000641C052CF5D3DFF87C0300F073FADFF804
:1009F000780300F06FFADFF8C40200F06BFA3348B6
:100A000000F068FAA74800F065FADFF85803DFF84D
:100A100048130860DFF85003DFF85013086010BD7A
:100A200094660020A46600209066002010B518E0AF
:100A300000F0FFFA2548C068C468201D00F083FA62
:100A4000DFF80C030068401EDFF80413086020483C
:100A50000068401E1E49086000F0F8FA200000F00F
:100A600005F81B4800680028E2D110BD10B504004D
:100A7000206B00F0EFF9200000F0ECF910BDDFF87A
:100A8000D80200680068002805D15FF0FF30DFF869
:100A90002812086007E0DFF8C0020068C06800683C
:100AA000DFF8141208607047DC640020DFF8C00231
:100AB0000068002801D1012007E0DFF8B8020068D3
:100AC000002801D1022000E000207047C865002006
:100AD000846600208C66002010B504000020002CE5
:100AE00050D0E16ADFF86C221268D26A914241D29A
:100AF000A069002806D4DFF85C020068C06AD0F163
:100B00000500A0616069DFF87012E26A14235A439D
:100B10001144884227D1201D00F015FA002809D180
:100B2000DFF8580200680121E26A91408843DFF84B
:100B30004C120860DFF81C020068C06AE062DFF84F
:100B40003C0200680121E26A91400843DFF82C1260
:100B50000860211DDFF82002E26A14235A43104482
:100B600000F0CAF904E0DFF8EC010068C06AE06256
:100B7000012007E0616CDFF8DC211268D26A914243
:100B800000D2012010BD10B504000020002C32D08E
:100B9000A16C491EA164E16A626C91422BD0A16CE8
:100BA000002928D1201D00F0CEF9002809D1DFF856
:100BB000CC0100680121E26A91408843DFF8BC1152
:100BC0000860606CE062E06AD0F10500A061DFF8C7
:100BD000AC0100680121E26A91400843DFF89C11F2
:100BE0000860211DDFF89001E26A14235A43104483
:100BF00000F082F9012010BD10B504000120002C86
:100C00003BD0626C8A4200D3616CE26A8A4234D083
:100C1000A26C824231D1E06AE162A269002A02D468
:100C2000D1F10501A1616169DFF84C21142358431A
:100C30001044814221D1201D00F085F9002809D1FE
:100C4000DFF8380100680121E26A91408843DFF84B
:100C50002C110860DFF8240100680121E26A91404C
:100C60000843DFF818110860211DDFF80C01E26A63
:100C700014235A43104400F03FF910BD04ED00E086
:100C8000DFF8D0000068002805D0DFF8C800006851
:100C9000816C491C8164DFF8BC000068704700006B
:100CA00004ED00E0DC650020B06600209C660020BA
:100CB000AC660020986F0008A8660020B46500208C
:100CC000280000208066002070B504000D001E483A
:100CD000066820480068001D00F035F900280BD197
:100CE0001C480068254909680122C06A12FA00F010
:100CF00031EA00002149086014F1010F08D1002DEC
:100D000006D014480068011D1D4800F0F5F81AE0EF
:100D1000A419104800684460B44207D20D48006826
:100D2000011D1248006800F0F3F80CE00948006863
:100D3000011D0948006800F0EBF812480068844281
:100D400001D21048046070BD8C66002098660020B7
:100D500088660020786600207C660020A06600205F
:100D600004ED00E08C650020A06500208066002076
:100D700094660020B0660020DC64002090660020AD
:100D8000DC650020A866002038B505000024FFF7C8
:100D9000F5FB4A480068002804D100F079F80120EA
:100DA00046490860002D16D0454800884019854204
:100DB00011D243480088451915F1080015F00701C4
:100DC000401A854205D215F1080015F00701451AB1
:100DD00002E0002500E00025002D37D039480068EA
:100DE000A84233D338493848006801E00100006860
:100DF0004268AA4202D20268002AF7D1334A9042DE
:100E000024D00A682E4B1B8802EB030402680A6098
:100E10002B49098849004268521B914210D200EBCD
:100E200005014268521B4A6045604B68264A00E053
:100E3000126815686D689D42FAD313680B601160E3
:100E4000204909684068081A1E490860FFF7C1FB7D
:100E5000200032BD10B50400002C18D018480088BE
:100E600040420444FFF78AFB6168174800E00068CD
:100E7000026852688A42FAD301682160046011480E
:100E80000068616808180F490860FFF7A2FB10BDF1
:100E90000F48C008C0000C49086000210A4A516090
:100EA00044F2F831094A51600021084A116044F2C5
:100EB000F831416005490160704700005C66002020
:100EC000D20F000800000020346600203C6600209D
:100ED0003810002010F1080141605FF0FF3181609F
:100EE00010F10801C16010F10801016100210160E9
:100EF000704700210161704742684A6093688B60C7
:100F000093685960916008610168491C01607047ED
:100F100010B40B6813F1010F01D1026907E010F161
:100F2000080200E0526854682468A342FAD2536869
:100F30004B604B6899608A60516008610168491C88
:100F4000016010BC70470169826843689A6042681A
:100F500083685A604A68824201D182684A600022EE
:100F600002610868401E08600868704762F30F223B
:100F700062F31F42401810F0030308D0C91A1FD3B0
:100F8000DB0748BF00F8012D28BF20F8022D130011
:100F900030B414461546103928BF20E93C00FAD871
:100FA000490728BF20E90C0048BF40F8042D8900FC
:100FB00028BF20F8022D48BF00F8012D30BC704733
:100FC000C91818BF00F8012DCB0728BF00F8012D64
:100FD00070470800001F5FF080730360001F49081E
:100FE00049000160001F0FF20D010160143802601A
:100FF00020387047BF2080F31188BFF34F8FBFF3B5
:101000006F8FFEE780B52248006850F47F002049CA
:1010100008601F48006850F07F401D49086000F0DC
:10102000FBFA00201B49086000F053FB002002BDC2
:101030007047BF2080F31188BFF34F8FBFF36F8FCE
:1010400014480068401C1349086070471148006844
:10105000401E104908600F480068002802D1002097
:1010600080F31188704780B5BF2080F31188BFF3EB
:101070004F8FBFF36F8FFFF728FB002803D05FF07F
:10108000805005490860002080F3118801BD0000F0
:1010900020ED00E02400002004ED00E038B504005D
:1010A00048480068A04201D24648046846480068A3
:1010B00040084000444908604448006844490968C1
:1010C000621E02FB010543480068A84202D2414863
:1010D00000682D1A72B6BFF34F8FBFF36F8FFFF703
:1010E0004EFC002810D1394800683B49086036485A
:1010F000006850F001003449086035480068401E1F
:101100003549086062B65BE03348056000202F492E
:1011100008602D48006850F001002B490860002C41
:1011200004D0BFF34F8F30BFBFF36F8F62B6BFF3F2
:101130004F8FBFF36F8F72B6BFF34F8FBFF36F8FB9
:1011400006202149086020480068C00315D52048C2
:101150000068401E401B1D49096808181D490968A0
:10116000884203D31A490968814202D218480068AC
:10117000401E19490860601E11E01548006800FB18
:1011800004F012490968411A11480068B1FBF0F0F7
:10119000421C0F4B1B685A43511A0F4A1160002121
:1011A0000A4A11600849096851F00101064A1160B4
:1011B000FFF783FA06480068401E0749086062B6D8
:1011C00031BD00BF6C66002010E000E018E000E0D8
:1011D000686600207066002014E000E01CB5002462
:1011E00000F0E1F9DFF8F803006800280ED0DFF81E
:1011F000F40301900320009000234FF48072DFF885
:10120000E8130FF24110FEF75BFF0400200016BD4B
:101210002DE9FC4104000D0016001F002820FFF7F7
:10122000B3FD8046B8F1000F0CD0002088F82400F0
:10123000CDF80480089800903B003200290020007F
:1012400000F003F84046BDE8F6812DE9F0410400C6
:101250000D0016001F00DDF81C80B8F1000F16D03D
:1012600000F0A1F9C8F80040C8F81850C8F81C7080
:101270000698C8F8200018F10400FFF73AFE002E87
:1012800005D098F8240050F0040088F82400BDE848
:10129000F0813EB504001D000020DFF844331B68D8
:1012A000002B22D0009101920294062915DAFFF753
:1012B000FDFB022808D10023069A6946DFF82003C7
:1012C000006800F098FA10E0002300226946DFF879
:1012D0001003006800F08FFA07E000232A00694637
:1012E000DFF8FC02006800F00DFB3EBD70B582B077
:1012F00004000E00BD480068C068C568281DFFF7DF
:1013000022FE95F82400400711D523003200A86979
:101310000119280000F07FF800280ED0002000906E
:101320000023220000212800FFF7B3FF05E095F815
:10133000240010F0FE0085F824002800296A884760
:1013400073BD000080B5684600F03EF8009900F0DB
:1013500003F800F07FF8F6E770B582B004000D00E6
:10136000FFF70CF9684600F042F8060000980028E4
:1013700027D1002D08D1A64206D3FFF72AF9310064
:101380002000FFF7B3FF1EE0002D07D0984800684B
:101390000068002801D1012500E000252A00A11BDA
:1013A0008F48006800F0B0FCFFF713F900280AD15D
:1013B0005FF080508F490860BFF34F8FBFF36F8F8E
:1013C00001E0FFF706F973BD88490968096800293B
:1013D00001D1012100E0002101600068002804D152
:1013E00082480068C068006800E00020704738B597
:1013F0000400FFF75EF905007F480068854204D2CB
:1014000000F09BF80120206001E0002020607A4875
:101410000560280032BD10B50024416000618A4299
:101420000BD3D11A8269914201D3012410E0011D2E
:101430006F480068FFF76CFD0AE09A4203D29942B8
:1014400001D3012404E0011D68480068FFF760FD36
:10145000200010BD10B586B01FE094F8240050F0B5
:10146000010084F82400029B0298A1690918200059
:10147000FFF7D1FF002810D02000216A884794F898
:101480002400400709D50020009000230298A1699C
:101490000A1800212000FFF7FCFE002201A9504895
:1014A000006800F063FA002845D001980028F4D4C1
:1014B000039C6069002802D0201DFFF744FD04A8AA
:1014C000FFF795FF020001980028C6D00228C4D07B
:1014D000C3D3042810D008D30628BED01BD30828B5
:1014E00003D0BAD3092807D024E094F8240010F0E0
:1014F000FE0084F82400D0E794F8240050F00100A6
:1015000084F824000298A0611300A06981182000CB
:10151000FFF781FFC1E794F82400800703D420007F
:10152000FFF798FC05E094F8240010F0FE0084F822
:101530002400B2E7B1E706B010BD38B506E0686038
:101540002D61291D29480068FFF7E2FC2748006843
:10155000006800281ED025480068C0680468234839
:101560000068C068C568281DFFF7EDFC2800296ADF
:10157000884795F824004007E8D5A86900198442F7
:10158000DDD3002000900023220000212800FFF777
:1015900080FEDBE71548006815490968134A1160A9
:1015A0001349086031BD80B5FFF743FD0C48006862
:1015B000002812D11148FFF78DFC1148FFF78AFC73
:1015C0000E480A4908600E480949086000220C21AB
:1015D000202000F0CEF802490860FFF737FD01BD7A
:1015E000BC660020C0660020A06F0008B466002022
:1015F000B866002004ED00E0C4660020F06500201D
:101600000466002010B50400FFF713FDE469FFF73E
:101610001DFD200010BD00004FF4FA400D49086088
:101620007FF07F400B490968B0FBF1F00A49086080
:101630002D200A4908600020094908600020094956
:10164000086047F6FF400849086007200449086021
:10165000704700BF686600206C660020706600203E
:1016600010E000E018E000E014E000E0EFF3098093
:10167000BFF36F8F1D4B1A6820E9F00F106008B59B
:101680004FF0BF0080F31188BFF34F8FBFF36F8F10
:10169000FFF79CF84FF0000080F31188BDE8084088
:1016A00019680868B0E8F00F80F30988BFF36F8FFE
:1016B00070470E4B19680868B0E8F00F80F309888E
:1016C000BFF36F8F4FF0000080F311884EF00D0EC6
:1016D000704707480068006880F3088862B661B602
:1016E000BFF34F8FBFF36F8F00DF000078660020DD
:1016F00008ED00E038B505000C00FFF79AFC2868FB
:10170000E96B2A6C51430844A8600020A86328684C
:1017100068602868E96B491E2A6C51430844E860F8
:101720005FF0FF3085F844005FF0FF3085F845003A
:10173000002C12D12869002817D015F11000FFF7EE
:101740008CF8002811D05FF08050DFF84414086056
:10175000BFF34F8FBFF36F8F07E015F11000FFF756
:10176000B9FB15F12400FFF7B5FBFFF76FFC012073
:1017700032BDF8B504000D00160005FB04F048303A
:10178000FFF702FB0700002F08D03A00483200970D
:101790003300DBB22900200000F002F83800F2BD6F
:1017A00080B5029B002901D11B6000E01A60D8635C
:1017B000196401211800FFF79DFF01BD80B50028C5
:1017C0000AD000218160002101600021C160002356
:1017D0000022002100F00FF801BD10B50123002107
:1017E0000200D2B21800FFF7C4FF04002000FFF788
:1017F000E5FF200010BDF7B504000D001E00002716
:1018000004E0200000F02CFAFEF7E3FEFFF711FCE5
:10181000A06BE16B884201D3022E26D13200290051
:10182000200000F0C5F9616A00290FD014F12400EE
:10183000FFF713F8002814D05FF08050DFF8501342
:101840000860BFF34F8FBFF36F8F0AE0002808D006
:101850005FF08050DFF838130860BFF34F8FBFF39D
:101860006F8FFFF7F3FB01204BE00298002803D1B4
:10187000FFF7ECFB002044E0002F03D16846FFF7A0
:1018800022F80127FFF7E2FBFEF778FEFFF7D1FB16
:1018900094F9440010F1010F02D1002084F84400B3
:1018A00094F9450010F1010F02D1002084F84500A1
:1018B000FFF7CCFB02A96846FFF70EF800281AD103
:1018C000200000F012FA00289BD0029914F11000B9
:1018D000FEF7A4FF200000F0C3F9FEF77AFE00280F
:1018E00094D15FF08050DFF8A8120860BFF34F8FEB
:1018F000BFF36F8F8AE7200000F0B2F9FEF769FEB0
:101900000020FEBDF8B5060014001A00EFF31185A3
:10191000BF2080F31188BFF34F8FBFF36F8FB06B81
:10192000F36B984201D3022A1CD196F94570B06B33
:10193000300000F03DF97FB217F1010F0DD1706A50
:10194000002809D016F12400FEF787FF002803D0F5
:10195000002C01D00120206002E0781C86F84500B0
:10196000012000E0002085F31188F2BDF7B50400E6
:101970000D00002604E0200000F072F9FEF729FEB9
:10198000FFF757FBA76B002F1AD02900200000F0AB
:1019900052F9781EA063206900280DD014F11000C0
:1019A000FEF75BFF002807D05FF0805078490860A1
:1019B000BFF34F8FBFF36F8FFFF748FB01204FE05E
:1019C0000298002803D1FFF741FB002048E0002ED9
:1019D00003D16846FEF777FF0126FFF737FBFEF7D6
:1019E000CDFDFFF726FB94F9440010F1010F02D161
:1019F000002084F8440094F9450010F1010F02D151
:101A0000002084F84500FFF721FB02A96846FEF795
:101A100063FF002819D1200000F059F90028AAD04E
:101A2000029914F12400FEF7F9FE200000F018F9E5
:101A3000FEF7CFFD0028A3D15FF080505449086025
:101A4000BFF34F8FBFF36F8F9AE7200000F008F9C4
:101A5000FEF7BFFD200000F03AF9002890D00020EA
:101A6000FEBD72B583B004000026002504E020000E
:101A700000F0F6F8FEF7ADFDFFF7DBFAA06B0028EB
:101A80001CD0401EA0632068002802D1FFF7F8F8A0
:101A9000A060206900280DD014F11000FEF7DDFED3
:101AA000002807D05FF0805039490860BFF34F8F9E
:101AB000BFF36F8FFFF7CAFA012067E00398002891
:101AC00003D1FFF7C3FA002060E0002E03D168467F
:101AD000FEF7F9FE0126FFF7B9FAFEF74FFDFFF713
:101AE000A8FA94F9440010F1010F02D1002084F803
:101AF000440094F9450010F1010F02D1002084F850
:101B00004500FFF7A3FA03A96846FEF7E5FE0028A3
:101B100024D1200000F0DBF80028A8D0206800289D
:101B200007D1FFF786FAA068FEF7D6FF0500FFF79A
:101B30008DFA039914F12400FEF770FE200000F0E6
:101B40008FF8FEF746FD002896D15FF080501049CF
:101B50000860BFF34F8FBFF36F8F8DE7200000F059
:101B60007FF8FEF736FD200000F0B1F8002883D0A2
:101B7000002D0AD0FFF75DFA200000F00FF80100F9
:101B8000A068FFF739F8FFF761FA002004B070BDD4
:101B900004ED00E080B5FFF75DF901BD416A002961
:101BA00004D0006B0068D0F1050000E00020704711
:101BB0002DE9F041040017000025A66B206C0028D9
:101BC00009D12068002831D1A068FEF7DCFF0500AC
:101BD0000020A0602AE0002F0FD1226C6768380037
:101BE00000F0B8F86068216C084460606068A16823
:101BF00088421BD32068606018E0226CD4F80C8007
:101C0000404600F0A7F8E068216C49420844E060D3
:101C1000E0682168884204D2A068216C49420844E7
:101C2000E060022F02D1002E00D0761E701CA0634F
:101C30002800BDE8F08110B50C00016C00290ED021
:101C4000C168026C1144C160C1688268914201D3CD
:101C50000168C160026CC168200000F07BF810BD13
:101C600038B50400FFF7E5F994F9455008E014F1A0
:101C70002400FEF7F2FD002801D0FEF75BFE6D1E8A
:101C80006DB2012D02DB606A0028F0D15FF0FF30F9
:101C900084F84500FFF7DAF9FFF7CBF994F94450DF
:101CA00008E014F11000FEF7D8FD002801D0FEF77F
:101CB00041FE6D1E6DB2012D02DB20690028F0D1BE
:101CC0005FF0FF3084F84400FFF7C0F931BD10B574
:101CD0000400FFF7AEF9A06B002801D1012400E059
:101CE0000024FFF7B3F9200010BD10B50400FFF782
:101CF000A0F9A06BE16B884201D1012400E000242F
:101D0000FFF7A4F9200010BD70B504000D00160007
:101D1000FFF78FF994F9440010F1010F02D1002070
:101D200084F8440094F9450010F1010F02D100201D
:101D300084F84500FFF78AF9A06B002805D132002E
:101D4000290014F12400FEF776FD2000FFF788FF3C
:101D500070BD000062B38B0708D0521E11F8013B22
:101D600000F8013B00F024808B07F6D1830740F098
:101D7000208000BF103A07D330B4B1E83810103AD1
:101D8000A0E83810F9D230BC530724BFB1E80810DE
:101D9000A0E8081044BF51F8043B40F8043BD207C8
:101DA00024BF31F8022B20F8022B44BF0B780370BC
:101DB0007047083A07D3B1E80810083A40F8043BE6
:101DC00040F804CBF7D25307E4E7000038B504002D
:101DD0000D00302100222000FFF7C8F8DFF8EC0BDF
:101DE000206000202071A5710020E0600020A07418
:101DF0000020E06114F1200000F036FE002084F89D
:101E00002800E46231BD80B502790B00DBB29A4252
:101E100002D0017100F0B3FE01BD80B5827C0B00E1
:101E2000DBB29A4203D08174C9B200F0CBFE01BD8F
:101E300080B5027AC2F340020B00D2B2DBB29A4202
:101E400006D0027A61F341020272C9B200F0E3FEE9
:101E500001BD10B504002068DFF8701B884208D06F
:101E60008F22DFF86C1BDFF8C40B01F039FBC04692
:101E7000C04601212000FFF7C6FF10BD10B50400C9
:101E80002068DFF8481B884208D09722DFF8401B03
:101E9000DFF8980B01F024FBC046C04620790028EB
:101EA00043D06069002804D0606901F08FFB0020F6
:101EB0006061A069002804D0A06901F087FB0020C0
:101EC000A061E068002819D0E0684068DFF8601B76
:101ED000884208D0A122DFF8F81ADFF8580B01F089
:101EE000FFFAC046C046E068083001F09BFBE0689E
:101EF00000F070FD0020E0600020A074200000F0E1
:101F00009BFADFF8340BC068A0420AD10020DFF84A
:101F1000281B08720020DFF8201BC860200000F09A
:101F2000B1FE00212000FFF76EFF10BD10B50400C8
:101F30002068DFF8981A884208D0BC22DFF8FC1A23
:101F4000DFF8E80A01F0CCFAC046C0462079012843
:101F500010D1207A10F0FE002072207A50F002009A
:101F6000207202202074200000F0EFFA02212000ED
:101F7000FFF749FF10BD70B40023002400220DE0DC
:101F8000855CEB18FF2593FBF5F605FB16331C1952
:101F9000FF2594FBF5F605FB1644521C89B28A42D4
:101FA000EEDB54EA0300002801D1002000E00F20FE
:101FB00070BC704710B5040040F6280100222000D4
:101FC000FEF7D4FF0120207010BD2DE9F84F04006A
:101FD0000D0016001F005FF000095FF0000806E02A
:101FE000D4F82008401CC4F8200818F10108B045B6
:101FF00080F0CB8015F808002178002906D002294E
:102000000CD005D3042927D019D3EEE74846BDE00C
:10201000C0B25528E9D102202070E6E7C0B25528A9
:10202000E3D0C0B2AD2802D0C0B26A2804D10320E8
:1020300020700020608001E001202070D5E7C0B250
:1020400055280ED104202070CFE761884A1C628099
:1020500089B221440871C8E7C0B255280ED10321C6
:102060002170618840F613029142EED1D4F818082D
:10207000401CC4F8180801202070B6E7C0B2AD2893
:1020800002D0C0B26A2800D1D1E701212170C0B2CC
:102090009228A5D1012020706088032805DAD4F8A1
:1020A0001C08401CC4F81C089FE76188201DFFF72E
:1020B00062FF002817D0D4F82408401CC4F8240874
:1020C0005FF0000A08E004EB0A000179DFF870090C
:1020D00001F069FC1AF1010A60888245F3DBD5A0A2
:1020E00001F061FC81E76088C01E80B200F049FC0D
:1020F0008246BAF80020611D1AF1110B5846FFF70D
:1021000029FE207910F00F009AF8101060F30301F7
:102110008AF810102079C0F3001010F001009AF82E
:10212000101011F07F0151EAC0108AF810002079D8
:10213000C0B240099AF8101060F386118AF81010A6
:102140002079C0B280099AF8101060F345118AF81E
:1021500010102079C0B2C0099AF8101060F3041171
:102160008AF81010BAF80000002806D0002000E01D
:10217000401CBAF800108842FADB1AF10801380056
:1021800001F0E2FD19F101092FE74846BDE8F28FA1
:1021900082B0ADF804009DF80400C9B20818ADF88B
:1021A00000009DF80100002804D09DF80000401CAC
:1021B0008DF800009DF80000FF2803D100208DF865
:1021C000040003E09DF800008DF804009DF8050070
:1021D0009DF804100818ADF800009DF801000028D3
:1021E00004D09DF80000401C8DF800009DF8000010
:1021F000FF2803D100208DF8050003E09DF80000C2
:102200008DF80500BDF8040002B0704710B403005B
:1022100080B2020A18001100C0B2C9B2884203D2CB
:10222000DBB213F1FF0001E0DBB21800D2B2801A7A
:1022300080B2FF2800D100200100DBB2580080B23C
:10224000FF2800DBFF381300DBB204009BB2A4B20E
:10225000A34200D2521E121AD2B2FF2A00D100228B
:10226000D2B2C9B251EA022080B210BC70472DE947
:10227000F041040000252088002805D0002000E05F
:10228000401C21888842FBDB208840000D30FEF78F
:102290007BFD0600002E06D14FF4EF72DFF89C178D
:1022A0000D2001F064FD9220307055207070208860
:1022B000002802D16A20B07001E0AD20B070207C0F
:1022C00010F00F012088002807D0207CC0B2C00980
:1022D000C0B2002801D051F01001207CC0F3801062
:1022E000C0B2002801D051F02001207CC0F3401082
:1022F000C0B2002801D051F04001207CC0F3001092
:10230000C0B2002801D051F08001F1700427C9B299
:10231000552903D15520BFB2F0557F1CC9B2280002
:1023200080B2FFF735FF05005FF0000816E01FFAE6
:1023300088F804EB0800417CBFB2F1557F1CC9B29C
:10234000552903D15520BFB2F0557F1CC9B22800D2
:1023500080B2FFF71DFF050018F1010840462188F3
:1023600080B28842E3D30021280080B2FFF710FF3B
:1023700005000021280080B2FFF70AFF05002800B1
:1023800080B2FFF743FF05002900BFB2F1557F1C63
:10239000C9B2552903D15520BFB2F0557F1CADB24B
:1023A000290ABFB2F1557F1CC9B2552903D1552066
:1023B000BFB2F0557F1C5520BFB2F0557F1C922054
:1023C000BFB2F0557F1CBFB23900300000F043FCB3
:1023D0003000FEF73FFDBDE8F08170B504000D0050
:1023E000160014F1200001F0FDFC002809D140F294
:1023F0001922DFF8DC15DFF84C0601F071F8C04651
:10240000C046E56184F82860287C10F00F000028A1
:1024100006D114F12001DFF8200601F0EAFC05E006
:1024200014F12001DFF8100601F08EFC200000F00E
:102430001CF870BD0D0A000010B5040014F1200056
:1024400001F0D0FC00280FD114F1200001F0EAF8CF
:1024500094F82800002805D1E069002802D0E0693E
:1024600000F0B8FA0020E06110BD10B582B0DFF8CE
:10247000C805007A002838D1DFF8BC0501F0B2FCAD
:10248000002832D1DFF8B0050068041F201D01F0DC
:10249000C9F82068FFF7EBFE20694069002803D0E7
:1024A0002069406901F092F801200090236902221E
:1024B0000FF2892141F2301001F02DF821694861B5
:1024C0000120DFF8741508722069DFF86C15C86008
:1024D000207B002803D1206800F07CFA03E0022171
:1024E0002069FFF79AFC0020206013BD10B504009E
:1024F000E068002805D0E0684068DFF834158842BD
:1025000009D040F26F22DFF8C814DFF83C0500F074
:10251000E7FFC046C046E168207A0A7C60F30412F7
:102520000A74087C50F020000874087C10F0BF008A
:102530000874A0790A7C60F303020A7401202074F5
:1025400001222000FFF749FF10BD38B5040000202C
:1025500000F017FA0500002D06D140F28222DFF8C4
:1025600070140D2001F003FC207A297C60F3041123
:102570002974287C50F020002874287C10F0BF00BB
:102580002874287C10F07F002874A079297C60F3DF
:102590000301297400202074002229002000FFF785
:1025A0001CFF31BD70B582B004000D00DFF81C04C3
:1025B00020602068002809D140F29522DFF810142D
:1025C000DFF8880400F08CFFC046C0466868DFF87A
:1025D0006014884209D040F29622DFF8F413DFF845
:1025E000700400F07DFFC046C0462079002802D06C
:1025F0002079012803D1280000F0ECF99DE0287C27
:10260000C0F38011C9B22000FFF712FC207C022821
:1026100003D1280000F0DEF98FE0287CC0F3001021
:1026200010F00100217A11F00101884203D0280046
:1026300000F0D0F981E02000FFF7FEFEDFF8F8039C
:10264000C068A0420AD10020DFF8EC130872002015
:10265000DFF8E413C860200000F014FB207A90F04B
:10266000010020726069002804D0606900F0AEFFAC
:10267000002060612079022803D103212000FFF7A8
:10268000C2FB207C01282BD1E068002808D140F251
:10269000CD22CF49DFF8BC0300F022FFC046C04680
:1026A000E6687068DFF88813884208D04FF4347207
:1026B000C749DFF8A40300F013FFC046C04616F177
:1026C000080000F0AFFF300000F084F90020E06067
:1026D00003212000FFF7A1FB00212000FFF79DFB55
:1026E000E068002805D0207AC0F34000C0B200287E
:1026F00013D0A069002802D0A06900F067FF022073
:102700000090230002220FF2350140F2DC5000F06D
:1027100002FFA0610220207404E000206074200009
:10272000FFF7E4FE2888002804D02900200000F0EC
:1027300073FA02E0280000F04DF973BD10B514687B
:102740005068C0B2012803D0022800F09C80ADE0A0
:102750000020B94908720020B749C860200000F085
:1027600091FA6069002800F0A1806069002804D017
:10277000606900F02BFF002060612079002802D002
:102780002079012800D191E0207902280ED1207C07
:10279000002807D040F20E328D49B04800F0A0FE6C
:1027A000C046C0462000FFF7D0FE7FE0207C002816
:1027B00034D1607C401C6074607C03282AD1207A6C
:1027C00010F0FE002072207A50F002002072E068C3
:1027D00000281BD0E06840689549884207D040F245
:1027E0001E327B49934800F07BFEC046C046E0683D
:1027F000083000F017FFE06800F0ECF80020E0601F
:1028000004212000FFF709FB0020A0740221200012
:10281000FFF7F9FA2000FFF798FE47E0207C012837
:1028200030D1607C401C6074607C032826D1E06855
:1028300000281BD0E06840687D49884207D040F2FC
:10284000323263497B4800F04BFEC046C046E06828
:10285000083000F0E7FEE06800F0BCF80020E0601F
:1028600004212000FFF7D9FA0020A07402212000E3
:10287000FFF7C9FA2000FFF768FE17E02000FFF716
:1028800035FE13E012E0A06900280FD0606900282F
:1028900004D0606900F09AFE00206061207903286E
:1028A00004D1002060742000FFF74FFE10BD38B542
:1028B00004000D0020684549884207D040F2553297
:1028C00043495A4800F00CFEC046C0466868584963
:1028D000884207D040F256323D495F4800F000FE82
:1028E000C046C0462079032804D0280000F072F8C2
:1028F000102045E0207AC0F34000C0B2002804D088
:10290000280000F067F811203AE0E068002804D0C1
:10291000280000F05FF8122032E0E560012120007D
:10292000FFF77BFA207C02280DD1A069002804D093
:10293000A06900F04BFE0020A06100206074200020
:10294000FFF7D4FD1BE0207C002818D114F12000F3
:1029500001F048FA002812D1607C00280FD1200035
:10296000FFF76AFDA069002804D0A06900F02EFEE0
:102970000020A061002060742000FFF7B7FD002058
:1029800032BD38B50400A4B214F11400FEF7FCF90E
:102990000500002D05D140F295320D490D2001F0C2
:1029A000E6F9A4B214F1140100222800FEF7DEFAC1
:1029B0001F4868602C8015F1080000F055F8284881
:1029C0000068401C26490860280032BD6B7428E16D
:1029D000586F000810B5040060681549884207D098
:1029E00040F2B73215491C4800F07AFDC046C04697
:1029F00014F1080001F0F6F9002807D140F2B932CD
:102A00000E49184800F06CFDC046C0461421002253
:102A10002000FEF7ABFA2000FEF71CFA10484068D1
:102A2000401C0F49486010BD00000000C06A00084B
:102A3000937593852469000814000020586F0008DE
:102A4000606F0008746900082C680008DC6A0008E0
:102A5000D06B00084C6D0008E86B00084C6900085A
:102A600044660020F86A000800604060704700007B
:102A700080B50100002904D010290CD0122905D0FE
:102A80000EE0DFF8D40900F08EFF0EE0DFF8CC098D
:102A900000F089FF09E0DFF8C80900F084FF04E0D6
:102AA0000100DFF8C00900F07EFF01BD80B5FDF731
:102AB000F2FB002002BD10B504002068002802D0FF
:102AC0002068FFF767F80120FEF787FE20600020EE
:102AD00010BD80B50168002902D15FF0FF3005E02C
:102AE0005FF0FF310068FEF7BCFF002002BD80B53B
:102AF0000168002902D15FF0FF3006E000230022C8
:102B000000210068FEF777FE002002BD10B504002A
:102B10002068002802D02068FFF73CF8032200213B
:102B20000120FEF726FE2060002010BD80B5016860
:102B3000002902D15FF0FF3006E0002300220021CF
:102B40000068FEF758FE002002BD80B50021006835
:102B5000FEF787FF002802D15FF0FF3000E0002081
:102B600002BD80B50122B1FBF2F10068FEF779FFEA
:102B7000002802D15FF0FF3000E0002002BD80B5E8
:102B80000079002805D002280DD007D303280FD0E4
:102B900013E0DFF8D40800F006FF12E0DFF8CC08FD
:102BA00000F001FF0DE0DFF8C80800F0FCFE08E0CF
:102BB000DFF8C00800F0F7FE03E0DFF8BC0800F023
:102BC000F2FE01BD80B5807C002806D002280ED020
:102BD00008D3042815D00FD318E0DFF8A00800F0C0
:102BE000E2FE17E0DFF8980800F0DDFE12E0DFF803
:102BF000940800F0D8FE0DE0DFF88C0800F0D3FE5A
:102C000008E0DFF8880800F0CEFE03E0DFF8800877
:102C100000F0C9FE01BD704710B50C00DFF8741854
:102C2000884205D0D122DFF870180D2001F09FF8FE
:102C3000DFF86808D0F88008401CDFF86018C1F899
:102C400080082100DFF8580800F032F8DFF8540857
:102C500000F0A9FE10BDF8B504000D0000260EE03E
:102C6000A91B04EB060001F0F5F90700002F05D5BC
:102C7000E422DFF824180D2001F079F8BE19AE42E5
:102C8000EED3F1BD704710B50400102100222000E2
:102C9000FEF76CF900212000FFF70DFF201DFFF764
:102CA000E3FE0022002114F10C00FFF72FFF10BDFE
:102CB00038B504000D0015F1080001F093F8002864
:102CC00009D14FF48072DFF8D017DFF8DC0700F08D
:102CD00007FCC046C0462000FFF7FBFE15F10801C7
:102CE000201D01F031F814F10C00FFF71FFF200048
:102CF000FFF7FDFE31BD38B5040014F10C00FFF7FD
:102D000024FF002801D0002029E02000FFF7E1FE89
:102D1000201D01F067F8002809D040F21712DFF8F3
:102D20007817DFF8880700F0DBFBC046C04665680F
:102D3000280000F077FC083D6868DFF874178842C7
:102D400009D04FF48F72DFF85017DFF8680700F0F2
:102D5000C7FBC046C0462000FFF7C9FE280032BDB1
:102D600038B5040014F10C00FFF7FBFE002801D079
:102D7000002029E02000FFF7ACFE201D01F032F812
:102D8000002809D04FF49F72DFF80C17DFF81C07FA
:102D900000F0A6FBC046C0466568280000F042FC73
:102DA000083D6868DFF80817884209D040F24512EC
:102DB000DFF8E416DFF8FC0600F092FBC046C046E0
:102DC0002000FFF794FE280032BD10B5040001E09A
:102DD000FFF700FE2000FFF78EFF0028F8D110BD9E
:102DE00010B540F694010022DFF8B0462000FEF74F
:102DF000BDF8DFF8AC06FFF746FF00220021DFF840
:102E0000B806FFF783FEC820DFF89016A1F8740813
:102E100010BD00B583B0DFF88406D0F86008002844
:102E200022D10021DFF86C06FEF7D0FFDFF88C0618
:102E3000FFF7C0F8DFF85C06FFF70BF8DFF8800655
:102E400001F039F8DFF87C060190002000900023A3
:102E50004FF40072DFF870160FF29D00FDF730F9A5
:102E6000DFF83006FFF762F800200EBD80B5DFF80E
:102E70002C06D0F86008002812D0DFF81806FEF7FC
:102E8000FDFFDFF83C0601F092F8DFF81006D0F8FD
:102E90006008FFF70BFE0020DFF80016C1F860089D
:102EA000002002BD7CB504000D0016006846FFF747
:102EB000DBFD3100280001F0FBF8002801D10020E3
:102EC00017E06B460200290014F13800FFF77DF887
:102ED00000280DD00098B0F1080515F1080000F0A9
:102EE000A1FB290014F10800FFF75CFB012000E0C2
:102EF000002076BD0000000080B508E0DFF89C05EA
:102F0000D0F87C08401CDFF89415C1F87C084FF419
:102F10008062DFF8B815DFF88405FFF7C3FF0028EB
:102F2000ECD1DFF87805B0F87418DFF88C05FFF7FE
:102F300018FEECE780B5DFF86405D0F8540800907F
:102F4000DFF85805D0F85838DFF85005D0F8502889
:102F5000DFF84805D0F85C18DFF8740500F023FDB1
:102F600001BD38B505000920FFF70BFD04006574AD
:102F7000002504E0681CDFF85C1548556D1C082D21
:102F8000F8D3002506E0DFF84C05405D04EB0501B1
:102F900088746D1C082DF6DBDFF80005FFF799FD3E
:102FA000DFF8FC04FFF711FF2100DFF8E804FFF76A
:102FB0007EFC05002800FFF75BFD002D4CD10120B1
:102FC000DFF8D814A1F87408DFF8EC04FFF7AEFDC1
:102FD0004FF4FA61DFF8C804FFF7C2FE0400C8200E
:102FE000DFF8B814A1F87408002C34D07BA000F0EE
:102FF000DAFC002507E004EB0500417CDFF8D8048B
:1030000000F0D1FC6D1C20888542F4DB74A000F038
:10301000CAFC607CF021084218D1607C0F21084274
:1030200010D100250AE0DFF8AC04405D04EB050197
:10303000897C4840DFF89C1448556D1C082DF2DB54
:10304000002504E0607C10F00F0500E0132520004F
:10305000FFF7C0FC00E01525DFF84004FFF747FD4F
:10306000280032BD30B585B005001120FFF789FC7E
:10307000040015F110006074002503E0E81C6946A7
:1030800048556D1C102DF9DB002512E0082004EBDB
:103090000501897C6A46525D95FBF0F300FB1350F5
:1030A000DFF83034185C5040484004EB0501887468
:1030B0006D1C102DEADBDFF8E403FFF70AFDDFF8F3
:1030C000E003FFF782FE2100DFF8C803FFF7EFFB04
:1030D00005002800FFF7CCFC002D79D10120DFF896
:1030E000BC13A1F87408DFF8D003FFF71FFD4FF4FD
:1030F000FA61DFF8AC03FFF733FE0400C820DFF805
:103100009C13A1F87408002C61D034A000F04BFC93
:10311000002507E004EB0500417CDFF8BC0300F06C
:1031200042FC6D1C20888542F4DB2DA000F03BFCA6
:10313000208802281EDBDFF8A40300F034FC012500
:1031400012E0681E082104EB0502527C90FBF1F3AB
:1031500001FB1300DFF87C13085C90EA0201DFF842
:10316000780300F020FC6D1C20888542E9DB1CA060
:1031700000F019FC607C10F0F000102822D1607C77
:103180000F2108421AD1002500E06D1C102D0FDA26
:10319000082004EB0501897C95FBF0F200FB12503E
:1031A000CC4A105C48406946495D4840FF28ECD055
:1031B000102D01D1002506E0142504E0607C10F0FC
:1031C0000F0500E013252000FFF704FC00E01525A3
:1031D000B248FFF78CFC280005B030BD092D3E0039
:1031E0000A000000F8B506000C000120FFF7C9FB3B
:1031F000050016F120006874A848FFF76AFCA8488B
:10320000FFF7E3FD2900A348FFF751FB060030005C
:10321000FFF72EFC002E40F09F8001209F49A1F86F
:103220007408A548FFF782FC40F6B8319C48FFF7C8
:1032300097FD0500C8209949A1F87408002D00F0F9
:103240008A8083A000F0AFFB002606E005EB0600B5
:10325000417CA14800F0A7FB761C28888642F5DB5C
:103260007CA000F0A0FB288802281BDB9B4800F014
:103270009AFB012610E0701E082105EB0602527C25
:1032800090FBF1F301FB13009249085C90EA020104
:10329000914800F088FB761C28888642EBDB6DA005
:1032A00000F081FB687C10F0F00020284ED1687C93
:1032B0000F21084246D12F8800260EE0082005EB9A
:1032C0000601897C96FBF0F200FB1260814A105CDB
:1032D000484005EB06018874761C781E8642EDDBBB
:1032E00015F11101381F00F0F3FE00909DF8000069
:1032F00005EB0701497B48409DF8011005EB0702EB
:10330000927B514008439DF8021005EB0702D27BE7
:10331000514008439DF8031005EB0702127C514011
:1033200051EA0006002E01D0032610E0002604E03A
:1033300005EB0600807CA055761C781F8642F7DBE3
:10334000002604E0687C10F00F0600E01326280039
:10335000FFF740FB00E015265048FFF7C8FB3000A0
:10336000F2BD38B505000120FFF70BFB0400B5F1F5
:10337000800060744948FFF7ACFB4948FFF725FD22
:1033800021004448FFF793FA05002800FFF770FB7F
:10339000002D58D101204149A1F874084648FFF793
:1033A000C5FB4FF4FA613E48FFF7DAFC0400C82081
:1033B0003A49A1F87408002C44D025A000F0F3FA93
:1033C000002506E004EB0500417C434800F0EBFAE1
:1033D0006D1C20888542F5DB1EA000F0E4FA2088F1
:1033E00002281BDB3D4800F0DEFA012510E0681ED4
:1033F000082104EB0502527C90FBF1F301FB130062
:103400003449085C90EA0201334800F0CCFA6D1CA4
:1034100020888542EBDB0FA000F0C5FA607C10F03D
:10342000F000802809D1607C0F21084201D10025DD
:1034300004E0607C10F00F0500E013252000FFF78A
:10344000C9FA00E015251548FFF751FB280032BDE9
:10345000092D3E000A0000009C6E0008FC6D00086B
:103460000C6E0008686F0008006C0008146B000800
:10347000306B00084C6B0008446A0008646A00085E
:10348000846A0008A0680008186C0008306C000806
:103490009869000838540020A86E000830540020B5
:1034A000945C0020486C0008606C0008686B0008A1
:1034B00093759385786C0008A85C00206854002000
:1034C00000800340905C0020706F0008C45C002006
:1034D000A46600084C660020786F0008806F000822
:1034E00000B583B00091019202906A460449182009
:1034F000ABBE002801D100F03BFE03B000BD00BF11
:103500001010020080B5FEF77DF810F11402017C66
:10351000C368984701BD08B42DE9F84104000F00C5
:10352000150007AE3B480068401C3A490860EDB200
:10353000002D02D0EDB2681E00E00020800018309F
:10354000FDF722FC8046B8F1000F04D13D2232493C
:103550000D2000F00CFC3148C8F80000C8F80C70D1
:1035600088F81050002005E03168361D08EB800215
:103570005161401CEDB2A842F6DB29480090434659
:103580000022210022A0FDF743FE0400002C05D1FB
:10359000532221490D2000F0EAFB12E0C8F8044054
:1035A000FDF787F80021009100230200012120008F
:1035B000FDF76FFE012804D05C2217490D2000F0B2
:1035C000D6FB4046BDE8F2015DF808FB10B582B0BD
:1035D0000400002C1BD00F484068401C0D49486077
:1035E000002000900023002205216068FDF751FEB5
:1035F000002804D1732208490D2000F0B8FB1821DF
:1036000000222000FDF7B2FC2000FDF723FC13BDD3
:10361000544D000028660020906E00082143771367
:103620000535000801684268116041680268516010
:103630000060406070470000012110F01F029140BF
:10364000DFF8182640B2400942F8201070470121E7
:1036500010F01F029140DFF8082640B2400942F8FE
:1036600020107047DFF8FC150968491CDFF8F425C5
:103670001160DFF8F41591F80511491C0A00DFF814
:10368000E83593F80431D2B29A420CD0DFF8D8254D
:10369000DFF8D43593F805311A4482F80601DFF8D3
:1036A000C80580F805117047DFF8BC0501880800DF
:1036B000DFF8B425528880B2904202D15FF0FF302B
:1036C0000BE0DFF8A40589B208440079491C01F039
:1036D000FF01DFF894251180C0B2704710B506E0F5
:1036E00000222021DFF88405006800F0A0FDDFF84B
:1036F0007C050068046C002C00D110BDE00606D5E6
:10370000DFF8680500680068C0B2FFF7ABFFA006ED
:10371000EDD5FFF7C9FF0028E2D4C0B2DFF84C15A1
:1037200009680860E3E780B5FFF7D8FF01BDDFF85F
:10373000380590F80401DFF8301591F8051188423A
:1037400002D15FF0FF3012E0DFF81C05DFF818153A
:1037500091F80411084490F80601DFF80C1591F86F
:103760000411491CDFF8002582F80411C0B270472B
:10377000DFF8FC04DFF8FC140968C90700D540082D
:10378000DFF8F0140968490706D5DFF8EC1409687A
:10379000C1F30321491C4843DFF8D8140968090A1A
:1037A00011F00301002903D0022915D003D316E03C
:1037B000DFF8BC0415E0DFF8BC1409680909090743
:1037C00009D50121DFF8AC241268C2F30212521CA1
:1037D0009140B0FBF1F004E04FF4004001E049F605
:1037E0004040704730B587B00400DFF880040460C3
:1037F0004FF403710022DFF870542800FDF7B6FB88
:10380000DFF87804844204D10121402000F03FFD1C
:1038100003E00121802000F03AFD0021200000F0AB
:1038200012FD5FF4E13003906020ADF8100000203D
:10383000ADF812000020ADF814000020ADF816001D
:103840004FF44070ADF8180003A9200000F094FC7C
:10385000DFF82804844206D16020ADF80000022081
:103860008DF8080005E00320ADF8000003208DF876
:10387000080001208DF8090000208DF802000120C9
:103880008DF80A0001208DF8070000208DF8060051
:1038900000208DF8050000208DF8040001208DF82F
:1038A0000300DFF8D803844205D16946DFF8D0036E
:1038B00000F0BEFD04E06946DFF8C80300F0B8FD83
:1038C0000121200000F0A5FC01221021200000F0C1
:1038D000AEFCDFF8A803844206D10720FFF7B7FE4D
:1038E0000620FFF7A9FE05E00620FFF7B0FE07203F
:1038F000FFF7A2FE07B030BD80B5DFF88C13097862
:1039000000293AD100284DD0DFF85C134988491CC2
:1039100001F0FF01DFF8502312889142F4D0DFF864
:103920004813DFF84423528811440871DFF8380344
:103930004088401C00F0FF00DFF82C134880DFF8BF
:103940002C030068806B80062CD4C7480188C648C9
:1039500089B208440079491C01F0FF01C24A118074
:10396000C0B2C24909680860C0480068806B50F066
:103970002000BE490968886314E0002805D1BB48CF
:10398000006880690006FAD50CE0B84909688969C1
:103990008906FAD4B549096808600A2802D10D20C1
:1039A000FFF7AAFF01BD0EB42DE9FF4F05000DF191
:1039B000340807E02000FFF79FFF0A2C02D10D20FA
:1039C000FFF79AFF2C786D1C002C5CD0252CF1D1D0
:1039D0002C786D1C01262D2C02D100262C786D1C14
:1039E00020200090302C03D1302000902C786D1CCA
:1039F00000272A2C06D1D8F8007018F104082C787A
:103A00006D1C10E0200000F0AFFD00280BD00A2054
:103A100000FB0740B0F1300728786D1C040000F06F
:103A2000A3FD0028F3D17FF0004A2E2C1DD12C7865
:103A30006D1C2A2C06D1D8F800A018F104082C78A7
:103A40006D1C12E0200000F08FFD00280DD05FF00B
:103A5000000A0A2000FB0A40B0F1300A28786D1CE9
:103A6000040000F081FD0028F3D188495FF00009CF
:103A70000A2001226C2C01D04C2C02D100222C787F
:103A80006D1C002C08D10020FFF736FF002004B089
:103A9000BDE8F00F5DF810FB2300252B4DD0582B0F
:103AA00024D0632B40D0642B0AD06F2B1CD0702BFA
:103AB0001CD0732B47D0752B1AD0782B17D085E0EC
:103AC000D2B2002A04D1D8F8009018F1040803E01B
:103AD000D8F8009018F10408B9F1000F02D5D9F117
:103AE000000200E04A460FE0082001E0684910208B
:103AF000D2B2002A04D1D8F8002018F1040803E05B
:103B0000D8F8002018F104080DF10F0400232370E9
:103B1000641EB2FBF0F300FB1323CB5C2370B2FBFB
:103B2000F0F2002AF4D112E001ACD8F8000018F14C
:103B3000040820705FF0010B14E001AC2520207018
:103B40005FF0010B0EE0D8F8004018F104085FF0B8
:103B5000000B01E01BF1010B14F80B00002801D051
:103B6000D345F7DBB7EB0B07B9F1000F00D57F1E8C
:103B70000098302805D1B9F1000F02D52D20FFF7AC
:103B8000BBFEF6B2012E06D103E00098FFF7B4FEAB
:103B90007F1E012FF9DA009820280CD1B9F1000F0F
:103BA00009D52D20FFF7A8FE05E02078FFF7A4FE39
:103BB000641CBBF1010BBBF1010FF6DA012F04DB32
:103BC0000098FFF799FE7F1EF8E7FBE62520FFF738
:103BD00093FE2000FFF790FEF4E624480068274992
:103BE000884201D12B4800E02B48704780B50F2058
:103BF00025490870002220211C48006800F017FBAE
:103C000001BD10B504000F201F49087000222021BB
:103C10001648006800F00BFBE4B2032C06D015D365
:103C2000052C0BD006D3062C0CD00FE01B48FFF759
:103C3000BAFE0EE01A48FFF7B6FE0AE01948FFF791
:103C4000B2FE06E01848FFF7AEFE02E01748FFF7A5
:103C5000AAFE00F081F810BD0000000000E100E0C5
:103C600080E100E058660020C46000205466002017
:103C700000127A000C0002400400024000000340E1
:103C800000000B4000800E40C8660020E86C000871
:103C9000D46C00086C6E0008786E00089C6D0008FB
:103CA000A46A0008AC6D0008BC6D0008C06C000878
:103CB00080B5FFF73CFD0028FBD402BD2DE9F041A3
:103CC00004000D00A846270007E07F2E2AD118F136
:103CD00001087F1E3000FFF70FFEB8F1010F1DDB5A
:103CE000FFF7E6FF06007F2E08D1A84505D018F1A2
:103CF00001087F1E3000FFF7FFFDEEE73000FFF701
:103D0000FBFD0D2E02D10A20FFF7F6FD3E707F1C51
:103D1000B8F101080A2E01D00D2EDED10A2E0ED0E8
:103D20000D2E0CD0FFF7C4FF06000A2E01D00D2E79
:103D3000CBD10A20FFF7E0FD0D20FFF7DDFD0020CD
:103D400038702000BDE8F081086042684A6042682F
:103D500011604160704700001C48006810F4E0608A
:103D60001B49084319490860BFF34F8FFEE7F8B5B8
:103D700004000D001600FFF739FF002700E07F1C4C
:103D80000D2F18D2134850F83700A042F7D1002D5C
:103D900008D132000F4800EBC70041680E48FFF71A
:103DA00002FE08E033002A000A4800EBC700416821
:103DB0000A48FFF7F8FD0D2F05D12B003200210036
:103DC0000748FFF7F0FDFFF7C7FFF1BD0CED00E07E
:103DD0000400FA0584670008746D0008A86C0008E8
:103DE000846B00080168814201D1012000E00020BD
:103DF000704702680A60486002685160016070475D
:103E0000012110F01F029140A34A40B2400942F83C
:103E100020107047A14991F80511491C0A009F4BD9
:103E200093F80431D2B29A4209D09C4A9B4B93F842
:103E300005311A4482F80601984880F80511704748
:103E4000964801880800954A528880B2904202D173
:103E50005FF0FF3009E0914889B208440079491CBD
:103E600001F0FF018D4A1180C0B2704710B505E026
:103E7000002220218A48006800F0D9F988480068AB
:103E8000046C002C00D110BDE00605D58448006804
:103E90000068C0B2FFF7BEFFA006EFD5FFF7D0FF66
:103EA0000028E5D4C0B27E4909680860E6E780B51D
:103EB000FFF7DCFF01BD30B587B00400784804602F
:103EC0004FF403710022754D2800FDF74FF8754837
:103ED000844204D10121402000F0D9F903E00121FE
:103EE000802000F0D4F90021200000F0ACF94FF45C
:103EF000964003906020ADF810000020ADF812004D
:103F00000020ADF814000020ADF816004FF440700A
:103F1000ADF8180003A9200000F02EF96148844292
:103F200006D16020ADF8000002208DF8080005E001
:103F30000320ADF8000002208DF8080001208DF864
:103F4000090000208DF8020001208DF80A000120F0
:103F50008DF8070000208DF8060000208DF8050080
:103F600000208DF8040001208DF803004D488442A4
:103F700004D169464C4800F05BFA03E069464B48BF
:103F800000F056FA0121200000F043F9012210212F
:103F9000200000F04CF94348844203D10620FFF78B
:103FA0002FFF02E00720FFF72BFF07B030BD0021F5
:103FB00001630021C16200214160902181610021E3
:103FC00001620021416200218162022141630021DE
:103FD000816300218164704730494988491C01F0A0
:103FE000FF012E4A12889142F6D02C492B4A528862
:103FF0001144087129484088401C00F0FF002749FF
:10400000488027480068806B800616D423480188C2
:10401000224889B208440079491C01F0FF011F4A77
:104020001180C0B21E49096808601D480068806B95
:1040300050F020001A4909688863704770B5040081
:104040000D00002603E0A05DFFF7C6FF761CAE4220
:10405000F9DB70BD10B50C002100FFF7EFFF200069
:1040600010BD0E4890F804010C4991F805118842E2
:1040700002D15FF0FF300EE00848084991F80411C2
:10408000084490F80601054991F80411491C034AB7
:1040900082F80411C0B2704700E100E0D062002055
:1040A000746600200000034000000B4000000C403C
:1040B00070B504000D00002601E0A055761CFFF746
:1040C000D0FF002801D4AE42F7DB300070BD000005
:1040D000F8B400220092002241E08B5CDBB2002B9E
:1040E0003CD09DF800405C408DF800401E4CDBB297
:1040F000E45C1419641CFF259DF80160B4FBF5F71E
:1041000005FB1744194D2C5D74408DF80140541C7B
:10411000154DDBB2ED5C6519B4FBF0F400FB1454F3
:10412000641CFF259DF80260B4FBF5F705FB1744FE
:104130000E4D2C5D74408DF802400B4CDBB2E35CFD
:10414000C3189B1AFF249DF80350B3FBF4F604FB3D
:104150001633064CE35C6B408DF80330521C8242F0
:10416000BBD30098F2BC70478C6300088C620008D7
:10417000012000F0FFB9000030B585B004000D004B
:10418000684600F094F800983B4909683B4A94421D
:1041900007D1012211F0070112FA01F1B0FBF1F091
:1041A0000AE0374A944207D10122090A11F00701B7
:1041B00012FA01F1B0FBF1F029688908B0FBF1F2C5
:1041C000910912F03F028000402303FB0123B0FB62
:1041D000F3F02B68C01A802358432B68B0FBF3F030
:1041E000032801D3002012E06162A262E16AA8887C
:1041F000EA8810432A8910436A8910430143E16227
:10420000216B6FF3CF11A88901432163012005B011
:1042100030BDC9B2002904D0016B51F00101016326
:1042200004E0016B4FF6FE72114001637047D2B299
:10423000002A03D0826B1143816303E0826B32EA70
:104240000101816370470C4A12680C4B984205D1FA
:1042500052F08072120A12020A4308E0084B984298
:1042600005D152F0007232F47F4252EA0122024834
:104270000260704700000000280002400000034078
:1042800000800340C0B2DFF8A01108607047C9B2D7
:10429000002905D06349096808436249086005E0C0
:1042A0006049096831EA00005E4908607047F0B46F
:1042B00057490968890701D55C4900E05B49544AC0
:1042C0001268D20700D549080A00514B1B685B07EA
:1042D00005D5504B1B68C3F303235D1C6A434C4B4D
:1042E0001B681B0A13F00303002B03D0022B16D00C
:1042F00003D318E04D4B036018E0454B1B681B09C6
:104300001B0701D4130008E00123414C2468C4F3C7
:104310000214641CA340B2FBF3F3036006E04FF405
:104320000043036002E049F6404303603A4B1B68D8
:104330009B0701D53D4B00E03C4B374C2468E4071C
:1043400000D55B081C00344D2D686D0705D5314D37
:104350002D68C5F303156D1C6C4325002E4E366881
:10436000F60600D56D0845602D4D2D682E093507E0
:1043700001D42E4D08E0012516F00706761C15FA2B
:1043800006F62A4DB5FBF6F5C560254E36683707AB
:1043900001D4264E08E0012716F00706761C17FA0E
:1043A00006F6224FB7FBF6F606611C4E366816F08D
:1043B0000306002E03D0022E04D001D304E004E053
:1043C000190002E0110000E02100144A12681209ED
:1043D00012F00302002A03D0022A07D003D306E01A
:1043E0004FF4004104E049F6404101E000E02900BB
:1043F0000A4A1268160A320707D5012216F0070387
:104400005B1C12FA03F6B1FBF6F18160F0BC704759
:104410000C00024004000240100002401400024060
:10442000180002401C000240D807B04300127A0076
:104430002DE9F34FD0F804C0D0F808E0D0F80C8094
:10444000D0F81090D0F814A08169C269002301242B
:1044500003255FF00116019F3F8875E05FEAC77B87
:104460006DD53CEA040CDDF804B09BF802B01BFAF1
:1044700003FB5BEA0C0C3EEA050ECDF800E0DDF82C
:1044800004E09EF808B09E465FFA8EFE5FEA4E0E8C
:104490001BFA0EFEDDF800B05EEA0B0E38EA0408E7
:1044A000DDF804B09BF80AB01BFA03FB5BEA0808CE
:1044B00039EA0609CDF80090DDF8049099F803B0C8
:1044C00013F110091BFA09F9DDF800B059EA0B09DC
:1044D000DDF804B09BF804B01BFA03FB5BEA0909A2
:1044E0003AEA060ACDF800A0DDF804A09AF805B073
:1044F00013F1100A1BFA0AFADDF800B05AEA0B0AA7
:10450000DDF804B09BF806B01BFA03FB5BEA0A0A6D
:10451000A9430091019991F809B01900C9B2490065
:104520001BFA01F1DDF800B051EA0B01A243DDF8FE
:1045300004B09BF807B01BFA03FB5BEA02026400BD
:10454000AD0076005B1C7F08002F87D1C0F804C047
:10455000C0F808E0C0F80C80C0F81090C0F814A0B3
:104560008161C261BDE8F38F30380A288041C00FF5
:10457000704700002021090326311820ABBEF9E75F
:10458000DFF81013096810F03F021143DFF804232D
:104590001160DFF80013096870F03F021140DFF886
:1045A000F4221160DFF8F0120968020912F00C021F
:1045B0001143DFF8E4221160DFF8DC12096800091A
:1045C00070F00C000840DFF8D01208607047DFF888
:1045D000C402006810F03F00DFF8BC12096809014E
:1045E00011F0C00108187047DFF8B002006850F4FD
:1045F0000070DFF8A8120860DFF8A402006850F429
:104600000070DFF89C120860002007E0DFF88C12D1
:10461000096831F40071A14A1160401CB0F5FA7FBD
:10462000F4D39E48006850F400709C4908607047BD
:104630009C480068000B00039A4908609A4800688B
:1046400050F03F00984908609848006840F6AA2159
:104650000843964908609648006850F03F00944926
:1046600008609448006830F47F10924908609248CE
:10467000006850F4F060904908609048006850F479
:104680002A108E4908608648006850F4F06084491A
:1046900008608B4800680009000189490860894862
:1046A000006850F00300874908608748006850F0B0
:1046B0000A00854908608548006850F00300834976
:1046C00008608348006830F0F00081490860814844
:1046D000006850F00C007F4908607F48006850F087
:1046E000A0007D4908607D48006850F00C007B49BF
:1046F00008606A48006850F480606849086078483B
:10470000006840084000764908607548006850F02D
:10471000020073490860734800688009800171498C
:1047200008607148006830F00C006F4908607047FD
:1047300010B5040059480068E4B2611C50EAC11089
:104740005649086055480068E4B2611CC90171F41B
:10475000C0710840514908605148006850F4C07069
:104760004F49086000F01EF96048047010BD10B594
:1047700004005B48006850F002005949086000F0EE
:1047800011F95848006850F03F00564908605648F3
:10479000006850F00C00544908604048006830F44C
:1047A00080603E4908604E480068400840004C491F
:1047B0000860E4B22000FFF7E3FE00F0F3F8484899
:1047C000006830F002004649086000F0EBF810BDC8
:1047D00010B504004248006850F0020040490860EB
:1047E00000F0E0F83F48006850F03F003D490860A5
:1047F0003D48006850F00C003B49086027480068BD
:1048000030F48060254908603548006850F00100A8
:1048100033490860E4B22000FFF7B2FE00F0C2F8AE
:104820002F48006830F002002D49086000F0BAF807
:1048300010BD10B52A48006850F0020028490860F1
:1048400000F0B0F827480068800980012549086019
:104850002548006830F00C00234908600F480068C4
:1048600050F480600D4908601D4800684008400011
:104870001B49086000F096F81948006830F0020003
:1048800017490860FFF7A3FE040000F08BF8200032
:10489000C0B210BD00800A4000800E4000000B40F6
:1048A00004000B4008800A400C800A4018800A402F
:1048B00010800A4008000B400C000B4018000B4011
:1048C00008800B400C800B4018800B4004800B408C
:1048D00008800E400C800E4018800E4010800E4064
:1048E00000800B4004800A4004800E40C96600200E
:1048F00010B5FFF79DFEFFF777FE002410E02000C3
:10490000C0B2FFF715FF072000F040F83F20FFF787
:104910002EFF052000F03AF8C020FFF728FF641CA6
:10492000022CECD310BD70B5002603E03F20FFF74A
:104930001EFF761C022E1ED23000C0B2FFF7F8FE1A
:10494000072000F023F83E20FFF711FF4020FFF77B
:104950000EFF002406E00020FFF73AFF6D1C402DFB
:10496000F9D3641C082CE1D254F0B800C0B2FFF7B0
:10497000FEFE0025F3E770BD10B500F013F8FFF759
:1049800058FF040000F00EF8200010BD10B5040020
:10499000FFF7F2FF01E0FFF7EFFF0121A14088429E
:1049A000F9D010BD0F2001E000BF401E0028FBD150
:1049B000704780B5FFF79CFF002000F025F84FF40A
:1049C0007A70FBF7CBFC012000F01EF84FF47A70F0
:1049D000FBF7C4FC022000F017F84FF47A70FBF7E5
:1049E000BDFC032000F010F84FF47A70FBF7B6FC22
:1049F000FFF799FFE0E710B50400FFF779FF20000B
:104A000000F002F810BD0000F8B50400FFF78BFFBE
:104A10000020A8490870002500E06D1C082D80F0DA
:104A20004881A54850F824004008D0F13F060020F6
:104A3000FFF77EFE55F0B800C0B2FFF798FE56F0C3
:104A40004000C0B2FFF793FE002745E09B4800EB13
:104A5000C700405D994901EBC701495D490111F06B
:104A6000400151EAC010954901EBC701495DC900F9
:104A700011F020010843914901EBC701495D49004C
:104A800011F0100108438D4901EBC701495DC9B21E
:104A9000490811F008010843884901EBC701495D45
:104AA000C9B2C90811F004010843844901EBC701E8
:104AB000495DC9B2490911F0020108437F4901EB80
:104AC000C701495DC9B250EAD110D0F1FF00C0B2B0
:104AD000FFF77EFE761C7F1C774850F82400874243
:104AE0009BD2402E0DD100260120FFF721FE55F06C
:104AF000B800C0B2FFF73BFE56F04000C0B2FFF76F
:104B000036FE002C06D0022C00F08E8047D3032CFA
:104B10009CD0DFE76A4800EBC700405D684901EBC5
:104B2000C701495D490111F0400151EAC0106449D3
:104B300001EBC701495DC90011F02001084360493C
:104B400001EBC701495D490011F0100108435C49C0
:104B500001EBC701495DC9B2490811F008010843DA
:104B6000574901EBC701495DC9B2C90811F00401F9
:104B70000843534901EBC701495DC9B2490911F026
:104B8000020108434E4901EBC701495DC9B250EA31
:104B9000D110D0F1FF00C0B2FFF71AFE9AE74948E2
:104BA00000EBC700405D474901EBC701495D490182
:104BB00011F0400151EAC010424901EBC701495DC3
:104BC000C90011F0200108433E4901EBC701495DCE
:104BD000490011F0100108433A4901EBC701495D52
:104BE000C9B2490811F008010843364901EBC70171
:104BF000495DC9B2C90811F004010843314901EB0C
:104C0000C701495DC9B2490911F0020108432D49A4
:104C100001EBC701495DC9B250EAD110D0F1FF00E4
:104C2000C0B2FFF7D5FD55E7274800EBC700405D50
:104C3000254901EBC701495D490111F0400151EAE5
:104C4000C010214901EBC701495DC90011F02001E5
:104C500008431D4901EBC701495D490011F01001EE
:104C60000843194901EBC701495DC9B2490811F070
:104C700008010843144901EBC701495DC9B2C908DD
:104C800011F004010843104901EBC701495DC9B2A5
:104C9000490911F0020108430B4901EBC701495DC5
:104CA000C9B250EAD110D0F1FF00C0B2FFF790FDB9
:104CB00010E7F1BDCA660020040000200C5800086F
:104CC000CC4C00088C5000084C5400080000000038
:104CD00000000000003FF00000000000003FF00076
:104CE00000000000007FE00000000000007FC00026
:104CF00000000000007FC0004000000000FFE00056
:104D0000E000000000FFE000E000000000FFE00025
:104D10002000000001FFF0000000000001FFF00093
:104D20000000000001FFF8008000000003FFF80110
:104D30008000000003FFFC00C000000003FFFC0037
:104D40000000000003FFFC000000000003FFF00073
:104D50000000000003FFE0000000000003FFE0008F
:104D60000000000007FFC0000000000007FFC000B7
:104D70000000000007FFC000000000000FFF8000DF
:104D8000000000000FFF8000000000000FFF000087
:104D9000000000000FFFB600000000000FFDFF80C4
:104DA000000000001FFBFFE0000000001FFFFFC02D
:104DB000000000001FFFFE00000000001FFFFE407B
:104DC000000000003FFFFFC0000000003FFFFFE0C9
:104DD000000000003FFFFFF0000000003FFFFFE089
:104DE000000000003FFDFC00000000007FFC008090
:104DF000000000007FFC9680000000007FF807C1E3
:104E0000000000007FFE87CC000000007FFFCF4045
:104E1000000000007FFFFFA0000000007FFFFFE018
:104E2000000000007FFFFFA0000000007FFFFFE800
:104E3000000000003FFFBFFC000000003FFF8E3C71
:104E4000000000001FFFC77E000000001FFFC3FF1F
:104E5000080000001FFFE3FF000000001FFFF3FF3A
:104E6000000000001FFFF9FF000000001FFFFDFF12
:104E7000800000001FFFFFFF800000803FFFFFFF5A
:104E8000800000803FFFFFFF800000403FFFFFFFEA
:104E9000800000003FFFFFFF80000000FFFFFFFFDA
:104EA000C0000020FFFF9FFFC0000000FFFFC7FF02
:104EB000C0000000FFFFE3FFC0001800FFFFE0FF9D
:104EC000C0000000FFFFEA7FC0000000FFFFF9FF05
:104ED000C0000000FFFFC07F80000000FFFF003F18
:104EE00080000000FFE7007800000000FFF981C0AB
:104EF000000000007FCFC0000E0000007FFB80009C
:104F00000E000040FFFF01E00D600040FFFF07E0E2
:104F10000EE00040FFFC3FE03FE00000FFF0FFE15B
:104F20007FF00020FFF1FFE3FFF80006FFFFFFF333
:104F30007FC0000EFFFFFFC76FF8001EFFFFFF8F4F
:104F4000E7B4001EFFFFFFEFC730001EFFFFFFFFAB
:104F5000E310001EFFFFFFEFE0000026FFFFFFFF52
:104F6000E000004AFFFFFFFFF400001EFFFFFFFF0D
:104F7000FC00003FFFFFFFFFFE10003FFFFFFFFFB1
:104F8000FF20005F7FFFFFFFFF00005F7FFFFFFF4D
:104F9000FFE0007EFFFFFFFFFFF000FEFFFFFFFFCF
:104FA000FFF001FEFFFFFFFFFFF801FC7FFFFFFFA7
:104FB000FFFC03FC7FFFFFFFFFFE01FC3FFFFFFF45
:104FC000FFFE01F83FFFFFFFFFFE01F01FFFFFFFA5
:104FD000FFFE01F01FFFFFFFFFFF00E01FFFFFFFCD
:104FE000FFFF00203FFFFFFFFFFF00C03FFFFFFF6D
:104FF000FFFE00801FFFFFFFFFFE00001FFFFFFFFF
:10500000FFFE00000FFFFFFFFFFE000007FFFFFF96
:10501000FFFC000003FFFFFFFFFC0000033FFFFF5A
:10502000FFF8000001DFFFFFFFF00000008FFFFF2F
:10503000FFF0000000C7FFFFFFE0000000E3FFFFFC
:10504000FFC000000001FFFFFFE000000004FFFFC1
:10505000FFE0000000007FFFFFF0000000001FFFE6
:10506000FFE00000000003FFFF0000000000007FE1
:10507000F800000000000000000000000000000038
:105080000000000000000000000000000000000020
:105090000000000000000000000000000000000010
:1050A00000000000000000000000400000000000C0
:1050B00000000000000000000000000000000000F0
:1050C00000000000000000000000000000000000E0
:1050D00000000000000000000000000000000000D0
:1050E000000000000000000040200000000000035D
:1050F000020000000000000F020000000000003C61
:10510000040000000000000000000000000000009B
:10511000000000000000000000000000000000008F
:10512000000000000000000000000000000000007F
:1051300000000000E000000000000000F00000009F
:1051400000000000F000000000000000F00000007F
:1051500000000000E000000000000000200000004F
:10516000000000000000000000000000000000003F
:10517000000000000000000000000000000000002F
:10518000000000000000000000000000000000001F
:10519000000000000000000AA00000000000007FE6
:1051A000F40000000000007FFE000000000010FF7F
:1051B000FFD000000000207FFFE00000000001FFA2
:1051C000FFD0000000000EBFFF80000000001F079E
:1051D000F700000000003B800000000000003140AC
:1051E00000000000000031C000000000000031F0AD
:1051F00000000000000030FBF80000000000300755
:10520000DC00000000007000A60000000001F000BB
:10521000000000000001F808000000000001FC0E82
:10522000000000000001FE03800000000001FF40BC
:10523000FC0010000003FFF0780008000005FFF8F4
:10524000380080000002FFFC300000000005FFFC79
:1052500010190000000BFFFC780A00000017FFF097
:10526000F8070000000FFFE3C0078000001FFFE009
:1052700000074000001FFFE00007C000001FFFF014
:10528000000FC000003FFFF8801FE000007FFFFF1D
:10529000F19FF000007FFFFFF00FE000007FFFFFB5
:1052A000F81D5000007FFFFFF83A0000007FFFFF6D
:1052B000F03F0000007FFFFFF03B800000511FFF28
:1052C000F015400000000FDAE0084000000005D1B2
:1052D000F0000000000013F0F0080000000001E101
:1052E000F004000000000080F80C00000000000145
:1052F000F800000000000001F800000000000001BC
:10530000F800000080000000F8000000803000017C
:10531000F0000000C0380003C0000000C01C1F4F98
:10532000DC000000800FFFFFFF800000801FFFFFF8
:10533000FFFC0000000FFFFFFFFFF300001FFFFF57
:10534000FFFFFF00001FFFFFFFFFFA00001FFFFF2E
:10535000FFFFF100001FFFFFFFFF8800000FFFFFAE
:10536000FFFFD0000007FFFFFFFFC8000001FFFFA5
:10537000FFFFE0000000FFFFFFFF800080001FFF35
:10538000FFF80000800000FFF8000000800000002F
:10539000000000008000000000000000800000000D
:1053A00000000000800000000000000080000000FD
:1053B00000000000C000000000000000C00000006D
:1053C00000000000E000000000000000E00000001D
:1053D00000000000F000000000000000F800001BCA
:1053E00000000000F800000600000000FE000007BA
:1053F00000000000FF00000880000001FF800000A6
:1054000000000007FFC000000000003FFFF00000A8
:10541000000007FFFFF8000000003FFFFFFE000054
:105420000000FFFFFFFFC0000001FFFFFFFFF000D3
:105430000007FFFFFFFFFF8003FFFFFFFFFFFFFFEE
:10544000FFFFFFFFFFFFFFFFFFFFFFFF0070C82010
:1054500003F010000050686103E0000000D86063B2
:105460000180400080C860600100000081C870C0F9
:1054700000008000918830C00000C000798830C0F2
:10548000000C0080F18831C0001C0000F3893180DD
:10549000001C0000F399310000180000F7DBB00099
:1054A00000200000F7F3B00000780000FFF3B00028
:1054B00010F00000FFF7B00030E00000FFFFA00296
:1054C00008E00000FFEF80070DE18000FFFF800F84
:1054D0008767C000FFFF800FC5CFC000FF8FF00EB1
:1054E000C21FC000FF83F89FA63FE000FF93FD9C12
:1054F0002C7FE0007FFFFF9E75FFE0003FFFFF3C39
:10550000439FE0001FFFFF3CCFFFF0000FFFFF397C
:105510003FF7F00007FFFF393FFFF800027FFF3041
:10552000FFDFF800003FFF71FFC9F800001FFE73A6
:10553000BB001800000FFE7379800800001FFC7785
:10554000F8000000000FFCEFF0000000000EECFD82
:10555000600000000006EEFF800000000007EEFF84
:10556000800000000003EEFC000000000001E6F2F5
:10557000000000000000E6F240000000000076E3BA
:10558000C0000000000073F7C000000000003EF7FC
:105590008000000000001FF78000000000000FFFE7
:1055A0000000000000000FFF04000000000007FFE3
:1055B000181F0000000003FFB03F8000000001FE44
:1055C0006033C000000000FCC000E800000000FDE7
:1055D0008800000000000079A80000000000003BE7
:1055E00078E0000000000033787C00000000003705
:1055F000FC0E000000000037FC0600000000001652
:10560000FE0000000000001FFF8000000000001FDF
:10561000FFF000000000001FFFE000000000000F8E
:10562000FFE000000000001FDFE000000000001F9E
:10563000FC6000000000001FF22000000000003F9E
:10564000F03000000000003FF01000000000003EBD
:10565000781F80000000007E7C1FC00000000E7ECE
:105660007F0FE00000000FFE3F0FE00000001FFC76
:105670001F87C00000001FFC0F8FE00000003DFFEF
:10568000A7CFE00000003FFFF1FFE00000003FFF78
:10569000F8FFE000000077FFE07FC000000067FF38
:1056A000E01FC0000000A7FFF00FC000000027FFB0
:1056B000F8038000000167FFFC01C000000033F91F
:1056C000F601C00000003FFE3181C01000000FFE57
:1056D0000101C02200063FF98000004200027FF86D
:1056E000800000000003FFFE000000000003DFFF59
:1056F000C000000000001FFFFFD8000000001FFFD7
:10570000FFF8000000000FFFFFFC7C1000000FFFFF
:10571000FFFFFE2C00000FFFFFFFFF6C000007FFE4
:10572000FFFFFFE8000007FFFFFFFFC0000007FFCB
:10573000FFFFFF80000007FFFFFFFF0000000FFFDB
:10574000FFFFEC00000007FFFFFFF000000007FF75
:10575000FFFFE000000003FFFFFF8000000003FFE9
:10576000FFFF0000000003FFFFFC0000000001FF3E
:10577000FFF80000000001FFFFF00000000000FF44
:10578000FFC00000000000FFFE000000000000FF5E
:10579000F8000000000020FFE0000000000020FFF3
:1057A000E0000000000000BC100000000000103805
:1057B0001000000000001030000000000000080091
:1057C00000000000000004000000000000000400D1
:1057D00000000000000000000000000000000006C3
:1057E00000000000000000000000000000000000B9
:1057F00000000000000000000000000000000000A9
:105800000000000000000000000000000000000098
:105810000000000000000000000000000000000088
:1058200000000000008000000000000000000000F8
:105830000000000000000000000000000200000066
:1058400000000000024000000000000001480000CD
:1058500000000000010000220000000000100050C5
:1058600000000000020002800000000000000000B4
:105870000000000000000000000000000000000028
:105880000000000000000000000000000000000018
:10589000000000000002000000000000000F800077
:1058A0000000000000FFC3EEE000000001FDFFFF6C
:1058B000F000000003FFFFFFFC00000007FFFFFFF8
:1058C000FE0000000FFFFFFFFF8000001FFFFFFF33
:1058D000FFC000003FFFFFFFFFC000007FFFFFFF92
:1058E000FFC000007FFFFFFFFFE00000FFFFFFFFA2
:1058F000FF800000FFFFFFFFF8000000FFFFFFFF39
:10590000C0000000FFFFFFF000008000FFFFFFE08D
:1059100000010000FFFFFFFE0002C000FFFFFFFFCD
:10592000F401C000FFFFFFFFF000A000FFFFFFF049
:1059300000000000FFFF8C0000000000FFFFC3D745
:10594000F0000000FFFFFFFFFE000000FFFFFFFF71
:10595000FE000000FFFFFFFFFE028000FFFFFFFFD1
:10596000FE000000FFFFFFFFFE07A000FFFFFFFF9C
:10597000E0075000FFFFFFFF8003E000FFFFFFFF95
:105980008003E000FFFFFFFF8003F800FFFFFFFE42
:10599000C003F800FFFFFFC0F803FE00FFFFFFE3B6
:1059A000FC03FC00FFFFFFFFFE07FE00FFFFFFFF01
:1059B000FE0FFF00FFFFFFFFFE0FFF80FFFFFFFF57
:1059C000FE0FFF00FFFFFFFFFE1FFE00FFFFFFFFB8
:1059D000FE1FFF80FFFFFFFFFE1FFFE0FFFFFFFF37
:1059E000FE1FFFC0FFFFFFFFFE1CFFE0FFFFFFFFEA
:1059F000FE19FFF0FFFFFFFFFE03ABF8FFFFFFFF05
:105A0000FE067070FFFFFFFFFE830038FFFFFFFF01
:105A1000FF000010FFFFFFFFFF01E000FFFFF03F6E
:105A2000FE07C000FFFFFE1DFE1F9800FFFFDC1CED
:105A3000FE1F0C00FFFFFF00787F0400FFFFC38CF8
:105A4000FC1F4400FFFBC181FE0E0000FFF051016E
:105A50007F0FC000FFFD000FFF0FFA00FFFE603F49
:105A6000FF807C00FFFFFFFFFFE00000FFFE7C1FC8
:105A7000FFF00000FFFB883FFFF80000FFE1F00FA0
:105A8000FFF80014FFFFFA0FFFFE007EFFFFF86F24
:105A9000FFFFFFF4FFFFFFFFFFFFFFFAFFFFFFFF26
:105AA000FFFFFFFFFFFFFFFFFFFFFFFAFFFFFFFF0B
:105AB000FFFFFFFDFFFFFFFFFFFFFFFEFFFFFFFFF9
:105AC000FFFFFFFCFFFFFFFFFFFFFFF8FFFFFFFFF0
:105AD000FFFFFFFCFFFFFFFFFFFFFFFEFFFFFFFFDA
